{
  "contractName": "IdentityManagement",
  "abi": [
    {
      "constant": true,
      "inputs": [
        {
          "name": "",
          "type": "address"
        },
        {
          "name": "",
          "type": "bytes32"
        }
      ],
      "name": "userDocuments",
      "outputs": [
        {
          "name": "documentHash",
          "type": "bytes32"
        },
        {
          "name": "validated",
          "type": "bool"
        },
        {
          "name": "validatedBy",
          "type": "address"
        }
      ],
      "payable": false,
      "stateMutability": "view",
      "type": "function"
    },
    {
      "anonymous": false,
      "inputs": [
        {
          "indexed": true,
          "name": "user",
          "type": "address"
        },
        {
          "indexed": false,
          "name": "documentHash",
          "type": "bytes32"
        }
      ],
      "name": "DocumentAdded",
      "type": "event"
    },
    {
      "anonymous": false,
      "inputs": [
        {
          "indexed": true,
          "name": "user",
          "type": "address"
        },
        {
          "indexed": false,
          "name": "documentHash",
          "type": "bytes32"
        },
        {
          "indexed": true,
          "name": "validator",
          "type": "address"
        }
      ],
      "name": "DocumentValidated",
      "type": "event"
    },
    {
      "anonymous": false,
      "inputs": [
        {
          "indexed": true,
          "name": "user",
          "type": "address"
        },
        {
          "indexed": false,
          "name": "documentHash",
          "type": "bytes32"
        }
      ],
      "name": "PermissionGranted",
      "type": "event"
    },
    {
      "anonymous": false,
      "inputs": [
        {
          "indexed": true,
          "name": "user",
          "type": "address"
        },
        {
          "indexed": false,
          "name": "documentHash",
          "type": "bytes32"
        }
      ],
      "name": "PermissionRevoked",
      "type": "event"
    },
    {
      "constant": false,
      "inputs": [
        {
          "name": "documentHash",
          "type": "bytes32"
        }
      ],
      "name": "addDocumentHash",
      "outputs": [],
      "payable": false,
      "stateMutability": "nonpayable",
      "type": "function"
    },
    {
      "constant": false,
      "inputs": [
        {
          "name": "user",
          "type": "address"
        },
        {
          "name": "documentHash",
          "type": "bytes32"
        }
      ],
      "name": "validateDocument",
      "outputs": [],
      "payable": false,
      "stateMutability": "nonpayable",
      "type": "function"
    },
    {
      "constant": false,
      "inputs": [
        {
          "name": "user",
          "type": "address"
        },
        {
          "name": "documentHash",
          "type": "bytes32"
        }
      ],
      "name": "grantPermission",
      "outputs": [],
      "payable": false,
      "stateMutability": "nonpayable",
      "type": "function"
    },
    {
      "constant": false,
      "inputs": [
        {
          "name": "user",
          "type": "address"
        },
        {
          "name": "documentHash",
          "type": "bytes32"
        }
      ],
      "name": "revokePermission",
      "outputs": [],
      "payable": false,
      "stateMutability": "nonpayable",
      "type": "function"
    }
  ],
  "bytecode": "0x608060405234801561001057600080fd5b50610b35806100206000396000f3fe608060405260043610610067576000357c010000000000000000000000000000000000000000000000000000000090048063375b796f1461006c5780635fe070131461011957806379052a9514610174578063a38a8ba6146101cf578063f38a82621461020a575b600080fd5b34801561007857600080fd5b506100c56004803603604081101561008f57600080fd5b81019080803573ffffffffffffffffffffffffffffffffffffffff16906020019092919080359060200190929190505050610265565b60405180848152602001831515151581526020018273ffffffffffffffffffffffffffffffffffffffff1673ffffffffffffffffffffffffffffffffffffffff168152602001935050505060405180910390f35b34801561012557600080fd5b506101726004803603604081101561013c57600080fd5b81019080803573ffffffffffffffffffffffffffffffffffffffff169060200190929190803590602001909291905050506102c9565b005b34801561018057600080fd5b506101cd6004803603604081101561019757600080fd5b81019080803573ffffffffffffffffffffffffffffffffffffffff169060200190929190803590602001909291905050506104ec565b005b3480156101db57600080fd5b50610208600480360360208110156101f257600080fd5b810190808035906020019092919050505061079d565b005b34801561021657600080fd5b506102636004803603604081101561022d57600080fd5b81019080803573ffffffffffffffffffffffffffffffffffffffff169060200190929190803590602001909291905050506108e7565b005b6000602052816000526040600020602052806000526040600020600091509150508060000154908060010160009054906101000a900460ff16908060010160019054906101000a900473ffffffffffffffffffffffffffffffffffffffff16905083565b6000803373ffffffffffffffffffffffffffffffffffffffff1673ffffffffffffffffffffffffffffffffffffffff168152602001908152602001600020600082815260200190815260200160002060010160009054906101000a900460ff16151561039d576040517f08c379a00000000000000000000000000000000000000000000000000000000081526004018080602001828103825260168152602001807f446f63756d656e74206e6f742076616c6964617465640000000000000000000081525060200191505060405180910390fd5b60008060008473ffffffffffffffffffffffffffffffffffffffff1673ffffffffffffffffffffffffffffffffffffffff168152602001908152602001600020600083815260200190815260200160002060010160006101000a81548160ff02191690831515021790555060008060008473ffffffffffffffffffffffffffffffffffffffff1673ffffffffffffffffffffffffffffffffffffffff168152602001908152602001600020600083815260200190815260200160002060010160016101000a81548173ffffffffffffffffffffffffffffffffffffffff021916908373ffffffffffffffffffffffffffffffffffffffff1602179055508173ffffffffffffffffffffffffffffffffffffffff167f789770131846de4d1f28418f0f957cdf4fcabe5eccf70067083e20ecece69a34826040518082815260200191505060405180910390a25050565b8173ffffffffffffffffffffffffffffffffffffffff163373ffffffffffffffffffffffffffffffffffffffff1614806105c45750600073ffffffffffffffffffffffffffffffffffffffff166000808473ffffffffffffffffffffffffffffffffffffffff1673ffffffffffffffffffffffffffffffffffffffff168152602001908152602001600020600083815260200190815260200160002060010160019054906101000a900473ffffffffffffffffffffffffffffffffffffffff1673ffffffffffffffffffffffffffffffffffffffff16145b1515610638576040517f08c379a000000000000000000000000000000000000000000000000000000000815260040180806020018281038252601a8152602001807f446f63756d656e7420616c72656164792076616c69646174656400000000000081525060200191505060405180910390fd5b60016000808473ffffffffffffffffffffffffffffffffffffffff1673ffffffffffffffffffffffffffffffffffffffff168152602001908152602001600020600083815260200190815260200160002060010160006101000a81548160ff021916908315150217905550336000808473ffffffffffffffffffffffffffffffffffffffff1673ffffffffffffffffffffffffffffffffffffffff168152602001908152602001600020600083815260200190815260200160002060010160016101000a81548173ffffffffffffffffffffffffffffffffffffffff021916908373ffffffffffffffffffffffffffffffffffffffff1602179055503373ffffffffffffffffffffffffffffffffffffffff168273ffffffffffffffffffffffffffffffffffffffff167f875e30dc35b7fbdd9c95e58c7796c56168a16efe1b20a88d5877902537d3e258836040518082815260200191505060405180910390a35050565b606060405190810160405280828152602001600015158152602001600073ffffffffffffffffffffffffffffffffffffffff168152506000803373ffffffffffffffffffffffffffffffffffffffff1673ffffffffffffffffffffffffffffffffffffffff16815260200190815260200160002060008381526020019081526020016000206000820151816000015560208201518160010160006101000a81548160ff02191690831515021790555060408201518160010160016101000a81548173ffffffffffffffffffffffffffffffffffffffff021916908373ffffffffffffffffffffffffffffffffffffffff1602179055509050503373ffffffffffffffffffffffffffffffffffffffff167fe68825b3468903e0d27d1e297b54d8679bde1a87d4aa7f008eb06bff2a521558826040518082815260200191505060405180910390a250565b6000803373ffffffffffffffffffffffffffffffffffffffff1673ffffffffffffffffffffffffffffffffffffffff168152602001908152602001600020600082815260200190815260200160002060010160009054906101000a900460ff1615156109bb576040517f08c379a00000000000000000000000000000000000000000000000000000000081526004018080602001828103825260168152602001807f446f63756d656e74206e6f742076616c6964617465640000000000000000000081525060200191505060405180910390fd5b60016000808473ffffffffffffffffffffffffffffffffffffffff1673ffffffffffffffffffffffffffffffffffffffff168152602001908152602001600020600083815260200190815260200160002060010160006101000a81548160ff021916908315150217905550336000808473ffffffffffffffffffffffffffffffffffffffff1673ffffffffffffffffffffffffffffffffffffffff168152602001908152602001600020600083815260200190815260200160002060010160016101000a81548173ffffffffffffffffffffffffffffffffffffffff021916908373ffffffffffffffffffffffffffffffffffffffff1602179055508173ffffffffffffffffffffffffffffffffffffffff167fc65937e3dbcb9fb30f646815dd67a3dbd09ba17718cbcb54efbe3635f8e0a6fe826040518082815260200191505060405180910390a2505056fea165627a7a72305820d4d229f52ef6845dd11c36715ef97a7ba5f0d433514e12a400ed5cb7f09573530029",
  "source": "// SPDX-License-Identifier: MIT\r\npragma solidity >=0.4.22 <0.9.0;\r\n\r\ncontract IdentityManagement {\r\n    struct Document {\r\n        bytes32 documentHash;\r\n        bool validated;\r\n        address validatedBy;\r\n    }\r\n\r\n    mapping(address => mapping(bytes32 => Document)) public userDocuments;\r\n\r\n    event DocumentAdded(address indexed user, bytes32 documentHash);\r\n    event DocumentValidated(address indexed user, bytes32 documentHash, address indexed validator);\r\n    event PermissionGranted(address indexed user, bytes32 documentHash);\r\n    event PermissionRevoked(address indexed user, bytes32 documentHash);\r\n\r\n    function addDocumentHash(bytes32 documentHash) public {\r\n        userDocuments[msg.sender][documentHash] = Document(documentHash, false, address(0));\r\n        emit DocumentAdded(msg.sender, documentHash);\r\n    }\r\n\r\n    function validateDocument(address user, bytes32 documentHash) public {\r\n        require(msg.sender == user || userDocuments[user][documentHash].validatedBy == address(0), \"Document already validated\");\r\n        userDocuments[user][documentHash].validated = true;\r\n        userDocuments[user][documentHash].validatedBy = msg.sender;\r\n        emit DocumentValidated(user, documentHash, msg.sender);\r\n    }\r\n\r\n    function grantPermission(address user, bytes32 documentHash) public {\r\n        require(userDocuments[msg.sender][documentHash].validated, \"Document not validated\");\r\n        userDocuments[user][documentHash].validated = true;\r\n        userDocuments[user][documentHash].validatedBy = msg.sender;\r\n        emit PermissionGranted(user, documentHash);\r\n    }\r\n\r\n    function revokePermission(address user, bytes32 documentHash) public {\r\n        require(userDocuments[msg.sender][documentHash].validated, \"Document not validated\");\r\n        userDocuments[user][documentHash].validated = false;\r\n        userDocuments[user][documentHash].validatedBy = address(0);\r\n        emit PermissionRevoked(user, documentHash);\r\n    }\r\n}\r\n",
  "sourcePath": "/mnt/c/Users/ADS/Projet_Blockchain/contracts/IdentityManagement.sol",
  "compiler": {
    "name": "solc",
    "version": "0.5.1+commit.c8a2cb62.Emscripten.clang"
  },
  "schemaVersion": "3.4.16",
  "updatedAt": "2023-12-17T23:20:55.978Z",
  "networkType": "ethereum",
  "devdoc": {
    "methods": {}
  },
  "userdoc": {
    "methods": {}
  }
}